:100000000C942A000C94B7090C94EA090C941D0A6C
:100010000C94F7050C943E060C9488060C949806F4
:100020000C94E5060C9432070C947D070C94C507DC
:100030000C9447000C9447000C9447000C94470024
:100040000C9447000C9447000C9447000C94470014
:100050000C94470011241FBECFE5D8E0DEBFCDBF12
:1000600010E0A0E6B0E0ECECF2E202C005900D92E8
:10007000A236B107D9F710E0A2E6B0E001C01D92A8
:10008000A738B107E1F70E9445110C9464110C9454
:100090000000DF93CF93CDB7DEB7A3E5B0E0E3E593
:1000A000F0E080818F7B8C93A3E5B0E0E3E5F0E0A6
:1000B0008081877F8C93A3E5B0E0E3E5F0E0808169
:1000C0008F7E8C93A3E5B0E0E3E5F0E080818F7D47
:1000D0008C93A9E5B0E0E9E5F0E0808181608C9344
:1000E000ECE5F0E01082E2E5F0E080EC8083A3E54F
:1000F000B0E0E3E5F0E080818E7F8C93A3E5B0E093
:10010000E3E5F0E0808182608C93A3E5B0E0E3E575
:10011000F0E080818B7F8C93CF91DF910895DF9306
:10012000CF93CDB7DEB7AFE4B0E0EFE4F0E080818D
:100130008E7F8C93AFE4B0E0EFE4F0E080818D7FC0
:100140008C93AEE4B0E0EEE4F0E08081877F8C93A6
:10015000AEE4B0E0EEE4F0E080818F7E8C93AFE41B
:10016000B0E0EFE4F0E080818F7B8C93AFE4B0E00F
:10017000EFE4F0E080818F778C93AFE4B0E0EFE4C0
:10018000F0E080818F7E8C93AFE4B0E0EFE4F0E0AC
:1001900080818F7D8C93A9E5B0E0E9E5F0E0808176
:1001A0008F7D8C93A9E5B0E0E9E5F0E080818F7E5A
:1001B0008C93A9E5B0E0E9E5F0E08081877F8C933E
:1001C000A9E5B0E0E9E5F0E080818B7F8C93EAE47B
:1001D000F0E011821082E8E4F0E011821082E6E49F
:1001E000F0E011821082ECE4F0E011821082AEE4C3
:1001F000B0E0EEE4F0E080818E7F8C93AEE4B0E07E
:10020000EEE4F0E080818D7F8C93AEE4B0E0EEE42C
:10021000F0E080818B7F8C93CF91DF910895DF9305
:10022000CF93CDB7DEB7A5E4B0E0E5E4F0E08081A0
:100230008F7B8C93A5E4B0E0E5E4F0E08081877FDC
:100240008C93A5E4B0E0E5E4F0E080818F7E8C93B0
:10025000A5E4B0E0E5E4F0E080818F7D8C93A9E532
:10026000B0E0E9E5F0E080818F778C93A9E5B0E01C
:10027000E9E5F0E080818F7B8C93E3E4F0E010828D
:10028000E4E4F0E01082A5E4B0E0E5E4F0E0808191
:100290008E7F8C93A5E4B0E0E5E4F0E080818D7F73
:1002A0008C93A5E4B0E0E5E4F0E080818B7F8C9353
:1002B000CF91DF910895DF93CF9300D000D0CDB7D9
:1002C000DEB78A8381E089838A81833008F048C061
:1002D0008A81282F30E03C832B838B819C81813065
:1002E000910531F12B813C812230310591F18B81D7
:1002F0009C810097B1F5ECE5F0E01082E2E5F0E0DA
:1003000080EC8083A3E5B0E0E3E5F0E080818E7FC0
:100310008C93A3E5B0E0E3E5F0E0808182608C930C
:10032000A3E5B0E0E3E5F0E080818B7F8C9319C01A
:10033000EAE4F0E011821082E8E4F0E01182108239
:10034000E6E4F0E011821082ECE4F0E01182108229
:1003500008C0E3E4F0E01082E4E4F0E0108201C0C1
:10036000198289810F900F900F900F90CF91DF919C
:100370000895DF93CF9300D000D0CDB7DEB78A8346
:1003800081E089838A81833008F094C08A81282F94
:1003900030E03C832B838B819C818130910591F1EE
:1003A0002B813C812230310509F45DC08B819C8119
:1003B000009709F080C0A3E5B0E0E3E5F0E08081BC
:1003C0008E7F8C93A3E5B0E0E3E5F0E080818D7F44
:1003D0008C93A3E5B0E0E3E5F0E080818B7F8C9324
:1003E000A8E5B0E0E8E5F0E0808181608C93ECE581
:1003F000F0E01082E2E5F0E0108210926F001092BF
:100400006E0059C0AEE4B0E0EEE4F0E080818E7F93
:100410008C93AEE4B0E0EEE4F0E080818D7F8C93CD
:10042000AEE4B0E0EEE4F0E080818B7F8C93A8E551
:10043000B0E0E8E5F0E0808184608C93E6E4F0E0F1
:1004400011821082EAE4F0E011821082E8E4F0E028
:1004500011821082ECE4F0E011821082109271009F
:100460001092700028C0A5E4B0E0E5E4F0E08081DF
:100470008E7F8C93A5E4B0E0E5E4F0E080818D7F91
:100480008C93A5E4B0E0E5E4F0E080818B7F8C9371
:10049000A8E5B0E0E8E5F0E0808180648C93E3E4D7
:1004A000F0E01082E4E4F0E0108210927300109209
:1004B000720001C0198289810F900F900F900F90E8
:1004C000CF91DF910895DF93CF93CDB7DEB72E970D
:1004D0000FB6F894DEBF0FBECDBF8A836B834C830B
:1004E00081E089838A81833008F0A1C08B818330C9
:1004F00008F09DC08C81823008F099C08A81282F35
:1005000030E03E872D878D859E858130910559F19C
:100510002D853E852230310509F469C08D859E8583
:10052000009709F085C08C81282F30E03C872B870D
:100530008B859C858130910531F02B853C8522305F
:10054000310549F075C0A9E5B0E0E9E5F0E080814A
:1005500082608C936DC0A9E5B0E0E9E5F0E08081B0
:1005600081608C9365C08C81282F30E03A87298781
:1005700089859A858130910591F029853A852230C7
:10058000310569F189859A85009709F051C0A9E57F
:10059000B0E0E9E5F0E0808180628C9349C08B8116
:1005A000282F30E038872F838F81988581309105FF
:1005B00031F02F8138852230310549F039C0A9E565
:1005C000B0E0E9E5F0E0808180618C9331C0A9E57D
:1005D000B0E0E9E5F0E0808188608C9329C0A9E56E
:1005E000B0E0E9E5F0E0808184608C9321C08C81EB
:1005F000282F30E03E832D838D819E8181309105AF
:1006000031F02D813E812230310549F011C0A9E53C
:10061000B0E0E9E5F0E0808180688C9309C0A9E54D
:10062000B0E0E9E5F0E0808180648C9301C019823C
:1006300089812E960FB6F894DEBF0FBECDBFCF9145
:10064000DF910895DF93CF93CDB7DEB72E970FB626
:10065000F894DEBF0FBECDBF8A836B834C8381E0ED
:1006600089838A81833008F0A1C08B81833008F0B0
:100670009DC08C81823008F099C08A81282F30E09B
:100680003E872D878D859E858130910559F12D8579
:100690003E852230310509F469C08D859E8500971D
:1006A00009F085C08C81282F30E03C872B878B8513
:1006B0009C858130910531F02B853C8522303105B8
:1006C00049F075C0A9E5B0E0E9E5F0E080818D7FF3
:1006D0008C936DC0A9E5B0E0E9E5F0E080818E7F04
:1006E0008C9365C08C81282F30E03A8729878985D3
:1006F0009A858130910591F029853A85223031051E
:1007000069F189859A85009709F051C0A9E5B0E0A3
:10071000E9E5F0E080818F7D8C9349C08B81282FA3
:1007200030E038872F838F8198858130910531F0B3
:100730002F8138852230310549F039C0A9E5B0E074
:10074000E9E5F0E080818F7E8C9331C0A9E5B0E0CF
:10075000E9E5F0E08081877F8C9329C0A9E5B0E0CE
:10076000E9E5F0E080818B7F8C9321C08C81282F7C
:1007700030E03E832D838D819E818130910531F063
:100780002D813E812230310549F011C0A9E5B0E04C
:10079000E9E5F0E080818F778C9309C0A9E5B0E0AE
:1007A000E9E5F0E080818F7B8C9301C0198289811B
:1007B0002E960FB6F894DEBF0FBECDBFCF91DF915E
:1007C0000895DF93CF9300D000D000D0CDB7DEB72F
:1007D0008A837C836B8381E089838A81833090F56F
:1007E0008B819C81009771F18A81282F30E03E83B4
:1007F0002D838D819E818130910591F02D813E81E7
:1008000022303105B1F08D819E810097E1F4809115
:100810006E0090916F00EB81FC819183808313C007
:100820008091700090917100EB81FC8191838083B5
:100830000AC08091720090917300EB81FC819183DA
:10084000808301C01982898126960FB6F894DEBF95
:100850000FBECDBFCF91DF910895DF93CF9300D02E
:1008600000D000D0CDB7DEB78A837C836B8381E074
:1008700089838A81833008F041C08B819C810097F5
:10088000E9F18A81282F30E03E832D838D819E817E
:100890008130910589F02D813E8122303105D9F0DA
:1008A0008D819E81009759F5E8E5F0E080818170A7
:1008B000EB81FC81808323C0E8E5F0E08081882F14
:1008C00090E0847090709595879595958795EB81CC
:1008D000FC81808314C0E8E5F0E08081882F90E0FF
:1008E00080749070082E892F000C881F990B000CC3
:1008F000881F991FEB81FC81808301C01982898147
:1009000026960FB6F894DEBF0FBECDBFCF91DF9114
:100910000895DF93CF9300D000D0CDB7DEB78A83A0
:1009200081E089838A81833058F58A81282F30E0DD
:100930003C832B838B819C818130910589F02B81B5
:100940003C8122303105A1F08B819C810097C9F454
:10095000A8E5B0E0E8E5F0E0808181608C9311C00B
:10096000A8E5B0E0E8E5F0E0808184608C9309C000
:10097000A8E5B0E0E8E5F0E0808180648C9301C0F8
:10098000198289810F900F900F900F90CF91DF9176
:100990000895DF93CF9300D000D0CDB7DEB78A8320
:1009A0007C836B8381E089838A81833088F48B81A7
:1009B0009C81009769F08A81882F90E0880F991FA9
:1009C000FC01EE59FF4F8B819C819183808301C094
:1009D000198289810F900F900F900F90CF91DF9126
:1009E0000895DF93CF93CDB7DEB727970FB6F8946E
:1009F000DEBF0FBECDBF8A836B835D834C8381E0F6
:100A000089838A81833058F58B81833040F58C81CE
:100A10009D81009721F18B81282F30E03F832E8329
:100A20008E819F818130910531F02E813F8122306E
:100A3000310529F007C081E08093740003C081E094
:100A4000809375008A81882F90E0880F991FFC01A0
:100A5000E859FF4F8C819D819183808301C0198269
:100A6000898127960FB6F894DEBF0FBECDBFCF9118
:100A7000DF910895DF93CF9300D000D000D0CDB7A1
:100A8000DEB78A837C836B8381E089838A818330AC
:100A9000A0F58B819C81009781F18A81282F30E01D
:100AA0003E832D838D819E818130910599F02D812A
:100AB0003E8122303105B9F08D819E810097F1F49D
:100AC000E2E5F0E08081882F90E0EB81FC8191836A
:100AD000808314C0ECE4F0E080819181EB81FC81A3
:100AE000918380830BC0E4E4F0E08081882F90E064
:100AF000EB81FC819183808301C0198289812696D4
:100B00000FB6F894DEBF0FBECDBFCF91DF91089531
:100B1000DF93CF93CDB7DEB729970FB6F894DEBF3A
:100B20000FBECDBF8A836B835D834C8381E0898355
:100B30008A81833008F03EC08B818330D8F58A816A
:100B4000282F30E03987288788859985813091055D
:100B500071F0288539852230310539F188859985EC
:100B6000009749F5ECE5F0E08C81808324C08B810F
:100B7000282F30E03F832E838E819F818130910525
:100B800031F02E813F812230310541F014C0EAE47A
:100B9000F0E08C819D81918380830DC0EAE4F0E0D8
:100BA0008C819D819183808306C0E3E4F0E08C8199
:100BB000808301C01982898129960FB6F894DEBF1F
:100BC0000FBECDBFCF91DF910895DF93CF9300D0BB
:100BD000CDB7DEB79A838983E6E4F0E089819A8114
:100BE000918380830F900F90CF91DF9108951F9292
:100BF0000F920FB60F9211242F933F934F935F9351
:100C00006F937F938F939F93AF93BF93EF93FF93D4
:100C1000DF93CF93CDB7DEB78091760090917700C8
:100C20000196909377008093760080917600909162
:100C300077008130910579F4109277001092760058
:100C400080916C0090916D00009729F0E0916C000C
:100C5000F0916D000995CF91DF91FF91EF91BF91D8
:100C6000AF919F918F917F916F915F914F913F9144
:100C70002F910F900FBE0F901F9018951F920F92FB
:100C80000FB60F9211242F933F934F935F936F935F
:100C90007F938F939F93AF93BF93EF93FF93DF93D4
:100CA000CF93CDB7DEB7809172009091730001961B
:100CB0009093730080937200809172009091730002
:100CC0008130910591F4E4E4F0E010821092730019
:100CD000109272008091660090916700009729F051
:100CE000E0916600F09167000995CF91DF91FF9147
:100CF000EF91BF91AF919F918F917F916F915F9194
:100D00004F913F912F910F900FBE0F901F9018950C
:100D10001F920F920FB60F921124DF93CF93CDB78E
:100D2000DEB7CF91DF910F900FBE0F901F901895F7
:100D30001F920F920FB60F9211242F933F934F9350
:100D40005F936F937F938F939F93AF93BF93EF9333
:100D5000FF93DF93CF93CDB7DEB78091780090916A
:100D600079000196909379008093780080917800C3
:100D70009091790081309105A9F410927900109238
:100D8000780080916A0090916B00009759F08091F3
:100D90007400882339F010927400E0916A00F09199
:100DA0006B000995CF91DF91FF91EF91BF91AF91CA
:100DB0009F918F917F916F915F914F913F912F9173
:100DC0000F900FBE0F901F9018951F920F920FB6A5
:100DD0000F9211242F933F934F935F936F937F93C1
:100DE0008F939F93AF93BF93EF93FF93DF93CF9333
:100DF000CDB7DEB780917A0090917B0001969093F9
:100E00007B0080937A0080917A0090917B00813002
:100E10009105A9F410927B0010927A0080916A00EB
:100E200090916B00009759F080917500882339F0FC
:100E300010927500E0916A00F0916B000995CF91D6
:100E4000DF91FF91EF91BF91AF919F918F917F9132
:100E50006F915F914F913F912F910F900FBE0F9027
:100E60001F9018951F920F920FB60F9211242F9377
:100E70003F934F935F936F937F938F939F93AF9322
:100E8000BF93EF93FF93DF93CF93CDB7DEB78091FE
:100E900070009091710001969093710080937000A2
:100EA00080917000909171008130910599F4ECE48B
:100EB000F0E0118210821092710010927000809107
:100EC000640090916500009729F0E0916400F09132
:100ED00065000995CF91DF91FF91EF91BF91AF919F
:100EE0009F918F917F916F915F914F913F912F9142
:100EF0000F900FBE0F901F9018951F920F920FB674
:100F00000F9211242F933F934F935F936F937F938F
:100F10008F939F93AF93BF93EF93FF93DF93CF9301
:100F2000CDB7DEB780917C0090917D0001969093C3
:100F30007D0080937C0080917C0090917D002CE46A
:100F40008C34920779F410927D0010927C0080918D
:100F5000680090916900009729F0E0916800F09195
:100F600069000995CF91DF91FF91EF91BF91AF910A
:100F70009F918F917F916F915F914F913F912F91B1
:100F80000F900FBE0F901F9018951F920F920FB6E3
:100F90000F9211242F933F934F935F936F937F93FF
:100FA0008F939F93AF93BF93EF93FF93DF93CF9371
:100FB000CDB7DEB780916E0090916F00019690934F
:100FC0006F0080936E0080916E0090916F002CE412
:100FD0008C34920798F0E2E5F0E080EC8083109288
:100FE0006F0010926E0080916200909163000097F4
:100FF00029F0E0916200F09163000995CF91DF91B3
:10100000FF91EF91BF91AF919F918F917F916F91E0
:101010005F914F913F912F910F900FBE0F901F90B6
:101020001895DF93CF93CDB7DEB7AFE5B0E0EFE52E
:10103000F0E0808180688C93CF91DF910895DF93F9
:10104000CF93CDB7DEB7AFE5B0E0EFE5F0E080815C
:101050008F778C93CF91DF910895DF93CF93CDB7A6
:10106000DEB72B970FB6F894DEBF0FBECDBF8A83D5
:101070006B8381E089838A81833008F005C18B818D
:10108000843008F001C18A81282F30E03B872A870D
:101090008A859B858130910509F46DC02A853B8541
:1010A0002230310509F4C9C08A859B85009709F073
:1010B000ECC0ABE5B0E0EBE5F0E0808180648C93C0
:1010C0008B81282F30E03987288788859985813062
:1010D000910521F128853985223031052CF4888548
:1010E0009985009761F0D1C0288539852230310576
:1010F00021F1888599858330910571F1C6C0A5E5F8
:10110000B0E0E5E5F0E080818E7F8C93A5E5B0E06E
:10111000E5E5F0E080818D7F8C93B7C0A5E5B0E078
:10112000E5E5F0E0808181608C93A5E5B0E0E5E540
:10113000F0E080818D7F8C93A8C0A5E5B0E0E5E567
:10114000F0E080818E7F8C93A5E5B0E0E5E5F0E0EE
:10115000808182608C9399C0A5E5B0E0E5E5F0E080
:10116000808181608C93A5E5B0E0E5E5F0E08081C9
:1011700082608C938AC0ABE5B0E0EBE5F0E0808163
:1011800080688C938B81282F30E03F832E838E8163
:101190009F818130910521F12E813F8122303105DF
:1011A0002CF48E819F81009761F06FC02E813F816A
:1011B0002230310521F18E819F818330910571F1BB
:1011C00064C0A5E5B0E0E5E5F0E080818B7F8C931D
:1011D000A5E5B0E0E5E5F0E08081877F8C9355C020
:1011E000A5E5B0E0E5E5F0E0808184608C93A5E5BD
:1011F000B0E0E5E5F0E08081877F8C9346C0A5E50F
:10120000B0E0E5E5F0E080818B7F8C93A5E5B0E070
:10121000E5E5F0E0808188608C9337C0A5E5B0E01B
:10122000E5E5F0E0808184608C93A5E5B0E0E5E53C
:10123000F0E0808188608C9328C0ABE5B0E0EBE5FE
:10124000F0E0808180628C938B81282F30E03D8399
:101250002C838C819D818230910531F02C813D81E0
:101260002330310549F011C0A4E5B0E0E4E5F0E039
:1012700080818F7B8C9309C0A4E5B0E0E4E5F0E0C9
:10128000808180648C9301C0198289812B960FB66E
:10129000F894DEBF0FBECDBFCF91DF910895DF93ED
:1012A000CF9300D000D0CDB7DEB78A8381E08983A9
:1012B0008A81833058F58A81282F30E03C832B8344
:1012C0008B819C818130910589F02B813C8122307A
:1012D0003105A1F08B819C810097C9F4ABE5B0E0AA
:1012E000EBE5F0E080818F7B8C9311C0ABE5B0E043
:1012F000EBE5F0E080818F778C9309C0ABE5B0E03F
:10130000EBE5F0E080818F7D8C9301C019828981AB
:101310000F900F900F900F90CF91DF910895DF9372
:10132000CF9300D000D0CDB7DEB78A837C836B83A8
:1013300081E089838A81833088F48B819C81009746
:1013400069F08A81882F90E0880F991FFC01E2588C
:10135000FF4F8B819C819183808301C01982898199
:101360000F900F900F900F90CF91DF9108951F92E3
:101370000F920FB60F9211242F933F934F935F93C9
:101380006F937F938F939F93AF93BF93EF93FF934D
:10139000DF93CF93CDB7DEB780917E0090917F0031
:1013A000009729F0E0917E00F0917F000995CF91A0
:1013B000DF91FF91EF91BF91AF919F918F917F91BD
:1013C0006F915F914F913F912F910F900FBE0F90B2
:1013D0001F9018951F920F920FB60F9211242F9302
:1013E0003F934F935F936F937F938F939F93AF93AD
:1013F000BF93EF93FF93DF93CF93CDB7DEB7809189
:10140000800090918100009729F0E0918000F09198
:1014100081000995CF91DF91FF91EF91BF91AF913D
:101420009F918F917F916F915F914F913F912F91FC
:101430000F900FBE0F901F9018951F920F920FB62E
:101440000F9211242F933F934F935F936F937F934A
:101450008F939F93AF93BF93EF93FF93DF93CF93BC
:10146000CDB7DEB78091820090918300009729F07C
:10147000E0918200F09183000995CF91DF91FF9177
:10148000EF91BF91AF919F918F917F916F915F91FC
:101490004F913F912F910F900FBE0F901F90189575
:1014A000DF93CF93CDB7DEB7EAE3F0E087E0808348
:1014B000E7E3F0E087E08083E4E3F0E01082E1E33B
:1014C000F0E01082EBE3F0E081E08083E8E3F0E01D
:1014D00084E08083E5E3F0E01082E2E3F0E084E082
:1014E0008083CF91DF910895DF93CF93CDB7DEB79F
:1014F00028970FB6F894DEBF0FBECDBF8A836B83EB
:101500004C8381E089838A81843008F0F1C08B812B
:10151000883008F0EDC08C81882309F074C08A817E
:10152000282F30E038872F838F819885813091056F
:1015300059F12F813885223031052CF48F8198851F
:10154000009769F0D6C02F8138852230310589F1A6
:101550008F8198858330910509F440C0CAC0AAE301
:10156000B0E0EAE3F0E08081482F8B81282F30E063
:1015700081E090E0022E02C0880F991F0A94E2F7E2
:10158000809584238C93B5C0A7E3B0E0E7E3F0E057
:101590008081482F8B81282F30E081E090E0022E5F
:1015A00002C0880F991F0A94E2F7809584238C93D8
:1015B000A0C0A4E3B0E0E4E3F0E08081482F8B8199
:1015C000282F30E081E090E0022E02C0880F991FA2
:1015D0000A94E2F7809584238C938BC0A1E3B0E05A
:1015E000E1E3F0E08081482F8B81282F30E081E01B
:1015F00090E0022E02C0880F991F0A94E2F78095AE
:1016000084238C9376C08C81813009F06FC08A81ED
:10161000282F30E03E832D838D819E81813091057E
:1016200049F12D813E81223031052CF48D819E813E
:10163000009761F05EC02D813E812230310571F14D
:101640008D819E8183309105E9F153C0AAE3B0E01A
:10165000EAE3F0E08081482F8B81282F30E081E0A1
:1016600090E0022E02C0880F991F0A94E2F7842BA3
:101670008C933FC0A7E3B0E0E7E3F0E08081482F20
:101680008B81282F30E081E090E0022E02C0880F8D
:10169000991F0A94E2F7842B8C932BC0A4E3B0E04B
:1016A000E4E3F0E08081482F8B81282F30E081E057
:1016B00090E0022E02C0880F991F0A94E2F7842B53
:1016C0008C9317C0A1E3B0E0E1E3F0E08081482F04
:1016D0008B81282F30E081E090E0022E02C0880F3D
:1016E000991F0A94E2F7842B8C9303C0198201C0DE
:1016F0001982898128960FB6F894DEBF0FBECDBF40
:10170000CF91DF910895DF93CF93CDB7DEB72897C0
:101710000FB6F894DEBF0FBECDBF8A836B834C83B8
:1017200081E089838A81843008F0F1C08B81883020
:1017300008F0EDC08C81882309F074C08A81282FBD
:1017400030E038872F838F8198858130910559F15A
:101750002F813885223031052CF48F8198850097B0
:1017600069F0D6C02F8138852230310589F18F810B
:1017700098858330910509F440C0CAC0ABE3B0E05E
:10178000EBE3F0E08081482F8B81282F30E081E06F
:1017900090E0022E02C0880F991F0A94E2F780950C
:1017A00084238C93B5C0A8E3B0E0E8E3F0E0808147
:1017B000482F8B81282F30E081E090E0022E02C07C
:1017C000880F991F0A94E2F7809584238C93A0C018
:1017D000A5E3B0E0E5E3F0E08081482F8B81282F7E
:1017E00030E081E090E0022E02C0880F991F0A9439
:1017F000E2F7809584238C938BC0A2E3B0E0E2E310
:10180000F0E08081482F8B81282F30E081E090E04C
:10181000022E02C0880F991F0A94E2F78095842354
:101820008C9376C08C81813009F06FC08A81282F1B
:1018300030E03E832D838D819E818130910549F179
:101840002D813E81223031052CF48D819E810097BF
:1018500061F05EC02D813E812230310571F18D81B4
:101860009E8183309105E9F153C0ABE3B0E0EBE337
:10187000F0E08081482F8B81282F30E081E090E0DC
:10188000022E02C0880F991F0A94E2F7842B8C93D2
:101890003FC0A8E3B0E0E8E3F0E08081482F8B810F
:1018A000282F30E081E090E0022E02C0880F991FBF
:1018B0000A94E2F7842B8C932BC0A5E3B0E0E5E318
:1018C000F0E08081482F8B81282F30E081E090E08C
:1018D000022E02C0880F991F0A94E2F7842B8C9382
:1018E00017C0A2E3B0E0E2E3F0E08081482F8B81F3
:1018F000282F30E081E090E0022E02C0880F991F6F
:101900000A94E2F7842B8C9303C0198201C01982D8
:10191000898128960FB6F894DEBF0FBECDBFCF9158
:10192000DF910895DF93CF93CDB7DEB728970FB639
:10193000F894DEBF0FBECDBF8B836C835E834D8377
:1019400081E08A838B81843008F0D0C08C8188301C
:1019500008F0CCC08D819E81009709F4C7C08B81AF
:10196000282F30E038872F834F815885413051052B
:1019700009F441C08F8198858230910534F42F811C
:1019800038852115310571F0B2C04F81588542303C
:10199000510509F459C08F8198858330910509F468
:1019A0007CC0A5C0E9E3F0E08081482F50E08C8145
:1019B000282F30E081E090E002C0880F991F2A951F
:1019C000E2F79A01282339238C81882F90E0A9011E
:1019D00002C0559547958A95E2F7CA0189838981A6
:1019E000882321F4ED81FE81108281C0ED81FE818A
:1019F00081E080837CC0E6E3F0E08081482F50E006
:101A00008C81282F30E081E090E002C0880F991F80
:101A10002A95E2F79A01282339238C81882F90E0B8
:101A2000A90102C0559547958A95E2F7CA018983B5
:101A30008981882321F4ED81FE81108258C0ED81D7
:101A4000FE8181E0808353C0E3E3F0E08081482F92
:101A500050E08C81282F30E081E090E002C0880FB8
:101A6000991F2A95E2F79A01282339238C81882F20
:101A700090E0A90102C0559547958A95E2F7CA0101
:101A800089838981882321F4ED81FE8110822FC012
:101A9000ED81FE8181E080832AC0E0E3F0E0808177
:101AA000482F50E08C81282F30E081E090E002C088
:101AB000880F991F2A95E2F79A01282339238C81F0
:101AC000882F90E0A90102C0559547958A95E2F7C5
:101AD000CA0189838981882321F4ED81FE811082E6
:101AE00006C0ED81FE8181E0808301C01A828A8177
:101AF00028960FB6F894DEBF0FBECDBFCF91DF9111
:101B00000895DF93CF9300D000D00F92CDB7DEB70A
:101B10008A836B8381E089838A81843008F073C073
:101B20008B81883008F06FC08A81282F30E03D8398
:101B30002C838C819D818130910549F12C813D81DF
:101B4000223031052CF48C819D81009761F05CC0BE
:101B50002C813D812230310571F18C819D81833052
:101B60009105E9F151C0ABE3B0E0EBE3F0E0808137
:101B7000482F8B81282F30E081E090E0022E02C0B8
:101B8000880F991F0A94E2F784278C933DC0A8E33D
:101B9000B0E0E8E3F0E08081482F8B81282F30E02F
:101BA00081E090E0022E02C0880F991F0A94E2F7AC
:101BB00084278C9329C0A5E3B0E0E5E3F0E08081C1
:101BC000482F8B81282F30E081E090E0022E02C068
:101BD000880F991F0A94E2F784278C9315C0A2E31B
:101BE000B0E0E2E3F0E08081482F8B81282F30E0E5
:101BF00081E090E0022E02C0880F991F0A94E2F75C
:101C000084278C9301C0198289810F900F900F90C7
:101C10000F900F90CF91DF910895DF93CF9300D075
:101C200000D00F92CDB7DEB78A836B8381E08983C2
:101C30008A81843098F58A81282F30E03D832C8377
:101C40008C819D8181309105D1F02C813D812230A4
:101C500031052CF48C819D81009761F020C02C818E
:101C60003D812230310581F08C819D818330910549
:101C700081F015C0EAE3F0E08B81808310C0E7E3D8
:101C8000F0E08B8180830BC0E4E3F0E08B81808304
:101C900006C0E1E3F0E08B81808301C01982898175
:101CA0000F900F900F900F900F90CF91DF910895AC
:101CB000DF93CF9300D000D00F92CDB7DEB78A83E9
:101CC0006B8381E089838A81843098F58A81282F0B
:101CD00030E03D832C838C819D8181309105D1F052
:101CE0002C813D81223031052CF48C819D8100971F
:101CF00061F020C02C813D812230310581F08C8142
:101D00009D818330910581F015C0EBE3F0E08B817C
:101D1000808310C0E8E3F0E08B8180830BC0E5E3B3
:101D2000F0E08B81808306C0E2E3F0E08B8180836A
:101D300001C0198289810F900F900F900F900F9022
:101D4000CF91DF910895DF93CF9300D000D000D0E2
:101D5000CDB7DEB78A837C836B8381E089838A81F8
:101D6000843008F03FC08B819C810097D9F18A8133
:101D7000282F30E03E832D838D819E818130910517
:101D8000E1F02D813E81223031052CF48D819E8140
:101D9000009761F028C02D813E8122303105A1F0ED
:101DA0008D819E8183309105B1F01DC0E9E3F0E0A3
:101DB0008081EB81FC81808316C0E6E3F0E08081C6
:101DC000EB81FC8180830FC0E3E3F0E08081EB8155
:101DD000FC81808308C0E0E3F0E08081EB81FC813E
:101DE000808301C01982898126960FB6F894DEBFE0
:101DF0000FBECDBFCF91DF910895DF93CF9300D079
:101E0000CDB7DEB72FE33FE080E0B9010E948F0934
:101E100023E53FE080E0B9010E94C9040E94500A16
:101E20000E94110880E063E00E942D080E94490092
:101E30001A82198280918500813011F40E94A80FC6
:101E4000809184008130A9F480E09E012F5F3F4F94
:101E5000B9010E94E10389819A8124EF31E0B9013F
:101E60000E945011009731F780E061E00E94810DDF
:101E7000E1CF80E061E040E00E94830BDBCFDF93A5
:101E8000CF93CDB7DEB781E080938500CF91DF910E
:101E90000895DF93CF93CDB7DEB781E080938600BE
:101EA000CF91DF910895DF93CF9300D000D0CDB7CD
:101EB000DEB780916000282F30E03C832B838B813C
:101EC0009C8181309105A9F02B813C812230310524
:101ED00069F18B819C810097A1F51092840081E0CB
:101EE0008093600081E08093610080E00E94931005
:101EF00028C081E08093840080916100282F30E029
:101F00003A83298389819A81009731F029813A8126
:101F10002130310521F006C01092600003C082E03C
:101F20008093600081E00E9493100BC082E0809358
:101F3000840081E0809360001092610082E00E9442
:101F400093100F900F900F900F90CF91DF91089505
:101F5000DF93CF9300D000D0CDB7DEB780E00E94F2
:101F6000B90129E43FE080E0B9010E94C90480E0A2
:101F70000E945B011A82198280918400282F30E030
:101F80003C832B838B819C8199230CF4AFC02B81E4
:101F90003C81223031053CF08B819C81823091055F
:101FA00009F468C0A3C081E00E94931081E00E9400
:101FB000EC101DC080E09E012F5F3F4FB9010E94D1
:101FC000E10380E062E040E00E94830B89819A8116
:101FD00024EF31E0B9010E945011009741F480E0F4
:101FE00061E00E94810D81E061E00E94810D80919D
:101FF00086008823F9F21092860082E00E949310F6
:1020000080E00E94EC10809186008823E1F310921A
:10201000860081E00E94931081E00E94EC101DC0B8
:1020200080E09E012F5F3F4FB9010E94E10380E0F5
:1020300062E040E00E94830B89819A8124EF31E0C5
:10204000B9010E945011009741F480E061E00E94C4
:10205000810D81E061E00E94810D809186008823DE
:10206000F9F21092860080E00E94931082E00E94B4
:10207000EC103CC082E00E94931080E00E94EC10C3
:10208000809186008823E1F31092860081E00E940F
:10209000931081E00E94EC101DC080E09E012F5F34
:1020A0003F4FB9010E94E10380E062E040E00E94FE
:1020B000830B89819A8124EF31E0B9010E9450118C
:1020C000009741F480E061E00E94810D81E061E0D1
:1020D0000E94810D809186008823F9F2109286007B
:1020E00080E00E94931082E00E94EC101092850024
:1020F0001092840081E08093600081E08093610011
:1021000080E00E94B90123E53FE080E0B9010E9430
:10211000C90480E00E945B010F900F900F900F9018
:10212000CF91DF910895DF93CF9300D000D0CDB74A
:10213000DEB78A8381E089838A81833008F043C0D7
:102140008A81282F30E03C832B838B819C818130D6
:102150009105C9F02B813C812230310521F18B8121
:102160009C81009789F580E060E041E00E94830B4C
:1021700080E061E040E00E94830B80E062E040E0AC
:102180000E94830B21C080E060E040E00E94830B4E
:1021900080E061E041E00E94830B80E062E040E08B
:1021A0000E94830B11C080E060E040E00E94830B3E
:1021B00080E061E040E00E94830B80E062E041E06B
:1021C0000E94830B01C0198289810F900F900F909C
:1021D0000F90CF91DF910895DF93CF9300D000D07F
:1021E000CDB7DEB78A8381E089838A81833008F0A6
:1021F00043C08A81282F30E03C832B838B819C81D4
:1022000081309105C9F02B813C812230310521F1CB
:102210008B819C81009789F581E060E041E00E941C
:10222000830B81E061E040E00E94830B81E062E08B
:1022300040E00E94830B21C081E060E040E00E940A
:10224000830B81E061E041E00E94830B81E062E06A
:1022500040E00E94830B11C081E060E040E00E94FA
:10226000830B81E061E040E00E94830B81E062E04B
:1022700041E00E94830B01C0198289810F900F9069
:102280000F900F90CF91DF910895DF93CF93CDB74B
:10229000DEB70E94FD0E80E090E0CF91DF910895BF
:1022A000AA1BBB1B51E107C0AA1FBB1FA617B7077C
:1022B00010F0A61BB70B881F991F5A95A9F7809598
:0C22C0009095BC01CD010895F894FFCF6B
:0222CC0001010E
:00000001FF
